{
  "contractName": "FunctionCallerV3",
  "abi": [
    {
      "inputs": [
        {
          "internalType": "address",
          "name": "_oracleAddress",
          "type": "address"
        }
      ],
      "stateMutability": "nonpayable",
      "type": "constructor"
    },
    {
      "anonymous": false,
      "inputs": [
        {
          "indexed": true,
          "internalType": "bytes32",
          "name": "id",
          "type": "bytes32"
        }
      ],
      "name": "ChainlinkCancelled",
      "type": "event"
    },
    {
      "anonymous": false,
      "inputs": [
        {
          "indexed": true,
          "internalType": "bytes32",
          "name": "id",
          "type": "bytes32"
        }
      ],
      "name": "ChainlinkFulfilled",
      "type": "event"
    },
    {
      "anonymous": false,
      "inputs": [
        {
          "indexed": true,
          "internalType": "bytes32",
          "name": "id",
          "type": "bytes32"
        }
      ],
      "name": "ChainlinkRequested",
      "type": "event"
    },
    {
      "anonymous": false,
      "inputs": [
        {
          "indexed": false,
          "internalType": "bool",
          "name": "success",
          "type": "bool"
        },
        {
          "indexed": false,
          "internalType": "address",
          "name": "destination",
          "type": "address"
        },
        {
          "indexed": false,
          "internalType": "string",
          "name": "method",
          "type": "string"
        }
      ],
      "name": "FunctionExecuted",
      "type": "event"
    },
    {
      "anonymous": false,
      "inputs": [
        {
          "indexed": false,
          "internalType": "uint256",
          "name": "id",
          "type": "uint256"
        },
        {
          "indexed": false,
          "internalType": "string",
          "name": "method",
          "type": "string"
        },
        {
          "indexed": false,
          "internalType": "address",
          "name": "callback",
          "type": "address"
        },
        {
          "indexed": false,
          "internalType": "uint32",
          "name": "amount",
          "type": "uint32"
        },
        {
          "indexed": false,
          "internalType": "address",
          "name": "destination",
          "type": "address"
        }
      ],
      "name": "MessageSuccess",
      "type": "event"
    },
    {
      "inputs": [
        {
          "internalType": "bytes32",
          "name": "x",
          "type": "bytes32"
        }
      ],
      "name": "asciiToInteger",
      "outputs": [
        {
          "internalType": "uint256",
          "name": "",
          "type": "uint256"
        }
      ],
      "stateMutability": "pure",
      "type": "function"
    },
    {
      "inputs": [
        {
          "internalType": "bytes",
          "name": "b",
          "type": "bytes"
        }
      ],
      "name": "bytesToUint",
      "outputs": [
        {
          "internalType": "uint256",
          "name": "",
          "type": "uint256"
        }
      ],
      "stateMutability": "pure",
      "type": "function"
    },
    {
      "inputs": [
        {
          "internalType": "string",
          "name": "source",
          "type": "string"
        }
      ],
      "name": "stringToBytes32",
      "outputs": [
        {
          "internalType": "bytes32",
          "name": "result",
          "type": "bytes32"
        }
      ],
      "stateMutability": "pure",
      "type": "function"
    },
    {
      "inputs": [
        {
          "internalType": "uint256",
          "name": "i",
          "type": "uint256"
        }
      ],
      "name": "uintToBytes",
      "outputs": [
        {
          "internalType": "bytes",
          "name": "",
          "type": "bytes"
        }
      ],
      "stateMutability": "pure",
      "type": "function"
    },
    {
      "inputs": [
        {
          "internalType": "string",
          "name": "_method",
          "type": "string"
        },
        {
          "internalType": "address",
          "name": "_callback",
          "type": "address"
        },
        {
          "internalType": "uint32",
          "name": "_amount",
          "type": "uint32"
        },
        {
          "internalType": "address",
          "name": "_destination",
          "type": "address"
        }
      ],
      "name": "initializeMessage",
      "outputs": [
        {
          "internalType": "uint64",
          "name": "id",
          "type": "uint64"
        }
      ],
      "stateMutability": "nonpayable",
      "type": "function"
    },
    {
      "inputs": [
        {
          "internalType": "uint64",
          "name": "_id",
          "type": "uint64"
        },
        {
          "internalType": "string",
          "name": "_chainId",
          "type": "string"
        }
      ],
      "name": "callFunction",
      "outputs": [],
      "stateMutability": "nonpayable",
      "type": "function"
    },
    {
      "inputs": [
        {
          "internalType": "string",
          "name": "_jobId",
          "type": "string"
        }
      ],
      "name": "setJobId",
      "outputs": [],
      "stateMutability": "nonpayable",
      "type": "function"
    },
    {
      "inputs": [
        {
          "internalType": "bytes32",
          "name": "_requestId",
          "type": "bytes32"
        },
        {
          "internalType": "uint64",
          "name": "_messageId",
          "type": "uint64"
        }
      ],
      "name": "fulfill",
      "outputs": [],
      "stateMutability": "nonpayable",
      "type": "function"
    },
    {
      "inputs": [
        {
          "internalType": "string",
          "name": "_method",
          "type": "string"
        },
        {
          "internalType": "address",
          "name": "_callback",
          "type": "address"
        },
        {
          "internalType": "uint32",
          "name": "_amount",
          "type": "uint32"
        },
        {
          "internalType": "address",
          "name": "_destination",
          "type": "address"
        }
      ],
      "name": "receiveFromRemoteChain",
      "outputs": [],
      "stateMutability": "nonpayable",
      "type": "function"
    },
    {
      "inputs": [
        {
          "internalType": "address",
          "name": "_address",
          "type": "address"
        }
      ],
      "name": "setOwner",
      "outputs": [],
      "stateMutability": "nonpayable",
      "type": "function"
    },
    {
      "inputs": [],
      "name": "getOwner",
      "outputs": [
        {
          "internalType": "address",
          "name": "",
          "type": "address"
        }
      ],
      "stateMutability": "view",
      "type": "function"
    }
  ],
  "bytecode": "0x608060405260016004553480156200001657600080fd5b5060405162002abf38038062002abf833981810160405260208110156200003c57600080fd5b810190808051906020019092919050505062000066620000e7640100000000026401000000009004565b6000600760006101000a81548167ffffffffffffffff021916908367ffffffffffffffff160217905550670de0b6b3a7640000600a8190555080600c60006101000a81548173ffffffffffffffffffffffffffffffffffffffff021916908373ffffffffffffffffffffffffffffffffffffffff16021790555050620001fa565b620001b473c89bd4e1632d3a43cb03aaad5262cbe4038bc57173ffffffffffffffffffffffffffffffffffffffff166338cc48316040518163ffffffff167c010000000000000000000000000000000000000000000000000000000002815260040160206040518083038186803b1580156200016257600080fd5b505afa15801562000177573d6000803e3d6000fd5b505050506040513d60208110156200018e57600080fd5b8101908080519060200190929190505050620001b6640100000000026401000000009004565b565b80600260006101000a81548173ffffffffffffffffffffffffffffffffffffffff021916908373ffffffffffffffffffffffffffffffffffffffff16021790555050565b6128b5806200020a6000396000f3fe608060405234801561001057600080fd5b50600436106100c6576000357c010000000000000000000000000000000000000000000000000000000090048063622f226e1161008e578063622f226e146104175780637d9008ed14610459578063893d20e81461052257806394e8767d1461056c57806399b2c1c714610613578063cfb5192814610655576100c6565b806302d06d05146100cb578063129fc1c01461019a57806313af4035146102555780634bd4e856146102995780634c701b5914610326575b600080fd5b610184600480360360208110156100e157600080fd5b81019080803590602001906401000000008111156100fe57600080fd5b82018360208201111561011057600080fd5b8035906020019184600183028401116401000000008311171561013257600080fd5b91908080601f016020809104026020016040519081016040528093929190818152602001838380828437600081840152601f19601f820116905080830192505050505050509192919290505050610724565b6040518082815260200191505060405180910390f35b610253600480360360208110156101b057600080fd5b81019080803590602001906401000000008111156101cd57600080fd5b8201836020820111156101df57600080fd5b8035906020019184600183028401116401000000008311171561020157600080fd5b91908080601f016020809104026020016040519081016040528093929190818152602001838380828437600081840152601f19601f8201169050808301925050505050505091929192905050506107db565b005b6102976004803603602081101561026b57600080fd5b81019080803573ffffffffffffffffffffffffffffffffffffffff1690602001909291905050506107ed565b005b610324600480360360408110156102af57600080fd5b81019080803567ffffffffffffffff169060200190929190803590602001906401000000008111156102e057600080fd5b8201836020820111156102f257600080fd5b8035906020019184600183028401116401000000008311171561031457600080fd5b90919293919293905050506108d7565b005b6103ed6004803603608081101561033c57600080fd5b810190808035906020019064010000000081111561035957600080fd5b82018360208201111561036b57600080fd5b8035906020019184600183028401116401000000008311171561038d57600080fd5b9091929391929390803573ffffffffffffffffffffffffffffffffffffffff169060200190929190803563ffffffff169060200190929190803573ffffffffffffffffffffffffffffffffffffffff169060200190929190505050610c98565b604051808267ffffffffffffffff1667ffffffffffffffff16815260200191505060405180910390f35b6104576004803603604081101561042d57600080fd5b8101908080359060200190929190803567ffffffffffffffff169060200190929190505050610fdc565b005b6105206004803603608081101561046f57600080fd5b810190808035906020019064010000000081111561048c57600080fd5b82018360208201111561049e57600080fd5b803590602001918460018302840111640100000000831117156104c057600080fd5b9091929391929390803573ffffffffffffffffffffffffffffffffffffffff169060200190929190803563ffffffff169060200190929190803573ffffffffffffffffffffffffffffffffffffffff1690602001909291905050506114dd565b005b61052a611534565b604051808273ffffffffffffffffffffffffffffffffffffffff1673ffffffffffffffffffffffffffffffffffffffff16815260200191505060405180910390f35b6105986004803603602081101561058257600080fd5b810190808035906020019092919050505061155e565b6040518080602001828103825283818151815260200191508051906020019080838360005b838110156105d85780820151818401526020810190506105bd565b50505050905090810190601f1680156106055780820380516001836020036101000a031916815260200191505b509250505060405180910390f35b61063f6004803603602081101561062957600080fd5b81019080803590602001909291905050506115be565b6040518082815260200191505060405180910390f35b61070e6004803603602081101561066b57600080fd5b810190808035906020019064010000000081111561068857600080fd5b82018360208201111561069a57600080fd5b803590602001918460018302840111640100000000831117156106bc57600080fd5b91908080601f016020809104026020016040519081016040528093929190818152602001838380828437600081840152601f19601f820116905080830192505050505050509192919290505050611631565b6040518082815260200191505060405180910390f35b60008060008090505b83518110156107d1576001810184510360080260020a84828151811061074f57fe5b60200101517f010000000000000000000000000000000000000000000000000000000000000090047f0100000000000000000000000000000000000000000000000000000000000000027f0100000000000000000000000000000000000000000000000000000000000000900460ff160282019150808060010191505061072d565b5080915050919050565b6107e481611631565b600b8190555050565b600760089054906101000a900473ffffffffffffffffffffffffffffffffffffffff1673ffffffffffffffffffffffffffffffffffffffff163373ffffffffffffffffffffffffffffffffffffffff1614610893576040517f08c379a000000000000000000000000000000000000000000000000000000000815260040180806020018281038252602281526020018061285e6022913960400191505060405180910390fd5b80600760086101000a81548173ffffffffffffffffffffffffffffffffffffffff021916908373ffffffffffffffffffffffffffffffffffffffff16021790555050565b3373ffffffffffffffffffffffffffffffffffffffff16600960008567ffffffffffffffff1667ffffffffffffffff16815260200190815260200160002060009054906101000a900473ffffffffffffffffffffffffffffffffffffffff1673ffffffffffffffffffffffffffffffffffffffff16146109a2576040517f08c379a000000000000000000000000000000000000000000000000000000000815260040180806020018281038252603f8152602001806127d4603f913960400191505060405180910390fd5b6109aa6125af565b600860008567ffffffffffffffff1667ffffffffffffffff1681526020019081526020016000206040518060c00160405290816000820160009054906101000a900467ffffffffffffffff1667ffffffffffffffff1667ffffffffffffffff168152602001600182018054600181600116156101000203166002900480601f016020809104026020016040519081016040528092919081815260200182805460018160011615610100020316600290048015610aa75780601f10610a7c57610100808354040283529160200191610aa7565b820191906000526020600020905b815481529060010190602001808311610a8a57829003601f168201915b505050505081526020016002820160009054906101000a900473ffffffffffffffffffffffffffffffffffffffff1673ffffffffffffffffffffffffffffffffffffffff1673ffffffffffffffffffffffffffffffffffffffff1681526020016002820160149054906101000a900463ffffffff1663ffffffff1663ffffffff1681526020016003820160009054906101000a900473ffffffffffffffffffffffffffffffffffffffff1673ffffffffffffffffffffffffffffffffffffffff1673ffffffffffffffffffffffffffffffffffffffff16815260200160048201604051806040016040529081600082018054600181600116156101000203166002900480601f016020809104026020016040519081016040528092919081815260200182805460018160011615610100020316600290048015610c2b5780601f10610c0057610100808354040283529160200191610c2b565b820191906000526020600020905b815481529060010190602001808311610c0e57829003601f168201915b50505050508152602001600182015481525050815250509050610c9283838080601f016020809104026020016040519081016040528093929190818152602001838380828437600081840152601f19601f820116905080830192505050505050508261165d565b50505050565b6000610ca26125af565b6001600760009054906101000a900467ffffffffffffffff160191506007600081819054906101000a900467ffffffffffffffff168092919060010191906101000a81548167ffffffffffffffff021916908367ffffffffffffffff1602179055505033600960008467ffffffffffffffff1667ffffffffffffffff16815260200190815260200160002060006101000a81548173ffffffffffffffffffffffffffffffffffffffff021916908373ffffffffffffffffffffffffffffffffffffffff160217905550610d7b8160a001516101006118bc565b5081816000019067ffffffffffffffff16908167ffffffffffffffff168152505086868080601f016020809104026020016040519081016040528093929190818152602001838380828437600081840152601f19601f82011690508083019250505050505050816020018190525084816040019073ffffffffffffffffffffffffffffffffffffffff16908173ffffffffffffffffffffffffffffffffffffffff168152505083816060019063ffffffff16908163ffffffff168152505082816080019073ffffffffffffffffffffffffffffffffffffffff16908173ffffffffffffffffffffffffffffffffffffffff168152505080600860008467ffffffffffffffff1667ffffffffffffffff16815260200190815260200160002060008201518160000160006101000a81548167ffffffffffffffff021916908367ffffffffffffffff1602179055506020820151816001019080519060200190610ee4929190612627565b5060408201518160020160006101000a81548173ffffffffffffffffffffffffffffffffffffffff021916908373ffffffffffffffffffffffffffffffffffffffff16021790555060608201518160020160146101000a81548163ffffffff021916908363ffffffff16021790555060808201518160030160006101000a81548173ffffffffffffffffffffffffffffffffffffffff021916908373ffffffffffffffffffffffffffffffffffffffff16021790555060a0820151816004016000820151816000019080519060200190610fbf9291906126a7565b506020820151816001015550509050508191505095945050505050565b816005600082815260200190815260200160002060009054906101000a900473ffffffffffffffffffffffffffffffffffffffff1673ffffffffffffffffffffffffffffffffffffffff163373ffffffffffffffffffffffffffffffffffffffff1614611094576040517f08c379a00000000000000000000000000000000000000000000000000000000081526004018080602001828103825260288152602001806128366028913960400191505060405180910390fd5b6005600082815260200190815260200160002060006101000a81549073ffffffffffffffffffffffffffffffffffffffff0219169055807f7cc135e0cebb02c3480ae5d74d377283180a2601f8f644edf7987b009316c63a60405160405180910390a26110ff6125af565b600860008467ffffffffffffffff1667ffffffffffffffff1681526020019081526020016000206040518060c00160405290816000820160009054906101000a900467ffffffffffffffff1667ffffffffffffffff1667ffffffffffffffff168152602001600182018054600181600116156101000203166002900480601f0160208091040260200160405190810160405280929190818152602001828054600181600116156101000203166002900480156111fc5780601f106111d1576101008083540402835291602001916111fc565b820191906000526020600020905b8154815290600101906020018083116111df57829003601f168201915b505050505081526020016002820160009054906101000a900473ffffffffffffffffffffffffffffffffffffffff1673ffffffffffffffffffffffffffffffffffffffff1673ffffffffffffffffffffffffffffffffffffffff1681526020016002820160149054906101000a900463ffffffff1663ffffffff1663ffffffff1681526020016003820160009054906101000a900473ffffffffffffffffffffffffffffffffffffffff1673ffffffffffffffffffffffffffffffffffffffff1673ffffffffffffffffffffffffffffffffffffffff16815260200160048201604051806040016040529081600082018054600181600116156101000203166002900480601f0160208091040260200160405190810160405280929190818152602001828054600181600116156101000203166002900480156113805780601f1061135557610100808354040283529160200191611380565b820191906000526020600020905b81548152906001019060200180831161136357829003601f168201915b505050505081526020016001820154815250508152505090507f7f2fb3f55f08a10ab20dd4c9031511ead5f04e3268d3f212c6081159ba14db7f81600001518260200151836040015184606001518560800151604051808667ffffffffffffffff168152602001806020018573ffffffffffffffffffffffffffffffffffffffff1673ffffffffffffffffffffffffffffffffffffffff1681526020018463ffffffff1663ffffffff1681526020018373ffffffffffffffffffffffffffffffffffffffff1673ffffffffffffffffffffffffffffffffffffffff168152602001828103825286818151815260200191508051906020019080838360005b8381101561149957808201518184015260208101905061147e565b50505050905090810190601f1680156114c65780820380516001836020036101000a031916815260200191505b50965050505050505060405180910390a150505050565b61152d85858080601f016020809104026020016040519081016040528093929190818152602001838380828437600081840152601f19601f82011690508083019250505050505050848484611910565b5050505050565b6000600760089054906101000a900473ffffffffffffffffffffffffffffffffffffffff16905090565b606080602067ffffffffffffffff8111801561157957600080fd5b506040519080825280601f01601f1916602001820160405280156115ac5781602001600182028036833780820191505090505b50905082602082015280915050919050565b60008060008090505b602081101561162757600060ff600883028660019004908060020a8204915050169050806030111580156115fc575060398111155b156116135781600a0a603082030283019250611619565b50611627565b5080806001019150506115c7565b5080915050919050565b6000606082905060008151141561164f576000600102915050611658565b60208301519150505b919050565b611665612727565b611695600b543063622f226e7c010000000000000000000000000000000000000000000000000000000002611916565b90506116e16040518060400160405280600781526020017f636861696e49640000000000000000000000000000000000000000000000000081525084836119479092919063ffffffff16565b6117396040518060400160405280600281526020017f6964000000000000000000000000000000000000000000000000000000000000815250836000015167ffffffffffffffff168361197a9092919063ffffffff16565b6117876040518060400160405280600681526020017f6d6574686f6400000000000000000000000000000000000000000000000000008152508360200151836119479092919063ffffffff16565b6117dd6040518060400160405280600881526020017f63616c6c6261636b0000000000000000000000000000000000000000000000008152506117cd84604001516119ad565b836119479092919063ffffffff16565b6118316040518060400160405280600681526020017f616d6f756e740000000000000000000000000000000000000000000000000000815250836060015163ffffffff168361197a9092919063ffffffff16565b6118876040518060400160405280600b81526020017f64657374696e6174696f6e00000000000000000000000000000000000000000081525061187784608001516119ad565b836119479092919063ffffffff16565b6118b6600c60009054906101000a900473ffffffffffffffffffffffffffffffffffffffff1682600a54611bd0565b50505050565b6118c4612794565b6000602083816118d057fe5b06146118e957602082816118e057fe5b06602003820191505b81836020018181525050604051808452600081528281016020016040525082905092915050565b50505050565b61191e612727565b611926612727565b61193d85858584611eb0909392919063ffffffff16565b9150509392505050565b61195e828460800151611f6090919063ffffffff16565b611975818460800151611f6090919063ffffffff16565b505050565b611991828460800151611f6090919063ffffffff16565b6119a8818460800151611f8590919063ffffffff16565b505050565b606080602867ffffffffffffffff811180156119c857600080fd5b506040519080825280601f01601f1916602001820160405280156119fb5781602001600182028036833780820191505090505b50905060008090505b6014811015611bc65760008160130360080260020a8573ffffffffffffffffffffffffffffffffffffffff1681611a3757fe5b047f010000000000000000000000000000000000000000000000000000000000000002905060006010827f0100000000000000000000000000000000000000000000000000000000000000900460ff1681611a8e57fe5b047f01000000000000000000000000000000000000000000000000000000000000000290506000817f01000000000000000000000000000000000000000000000000000000000000009004601002837f01000000000000000000000000000000000000000000000000000000000000009004037f0100000000000000000000000000000000000000000000000000000000000000029050611b2e82611f95565b858560020281518110611b3d57fe5b60200101907effffffffffffffffffffffffffffffffffffffffffffffffffffffffffffff1916908160001a905350611b7581611f95565b856001866002020181518110611b8757fe5b60200101907effffffffffffffffffffffffffffffffffffffffffffffffffffffffffffff1916908160001a9053505050508080600101915050611a04565b5080915050919050565b600030600454604051602001808373ffffffffffffffffffffffffffffffffffffffff1673ffffffffffffffffffffffffffffffffffffffff166c0100000000000000000000000002815260140182815260200192505050604051602081830303815290604052805190602001209050600454836060018181525050836005600083815260200190815260200160002060006101000a81548173ffffffffffffffffffffffffffffffffffffffff021916908373ffffffffffffffffffffffffffffffffffffffff160217905550807fb5e6e01e79f91267dc17b4e6314d5d4d03593d2ceee0fbb452b750bd70ea5af960405160405180910390a2600260009054906101000a900473ffffffffffffffffffffffffffffffffffffffff1673ffffffffffffffffffffffffffffffffffffffff16634000aea08584611d1487612067565b6040518463ffffffff167c0100000000000000000000000000000000000000000000000000000000028152600401808473ffffffffffffffffffffffffffffffffffffffff1673ffffffffffffffffffffffffffffffffffffffff16815260200183815260200180602001828103825283818151815260200191508051906020019080838360005b83811015611db7578082015181840152602081019050611d9c565b50505050905090810190601f168015611de45780820380516001836020036101000a031916815260200191505b50945050505050602060405180830381600087803b158015611e0557600080fd5b505af1158015611e19573d6000803e3d6000fd5b505050506040513d6020811015611e2f57600080fd5b8101908080519060200190929190505050611e95576040517f08c379a00000000000000000000000000000000000000000000000000000000081526004018080602001828103825260238152602001806128136023913960400191505060405180910390fd5b60016004600082825401925050819055508090509392505050565b611eb8612727565b611ec885608001516101006118bc565b508385600001818152505082856020019073ffffffffffffffffffffffffffffffffffffffff16908173ffffffffffffffffffffffffffffffffffffffff16815250508185604001907bffffffffffffffffffffffffffffffffffffffffffffffffffffffff191690817bffffffffffffffffffffffffffffffffffffffffffffffffffffffff191681525050849050949350505050565b611f6d826003835161224f565b611f8081836123a390919063ffffffff16565b505050565b611f918260008361224f565b5050565b6000600a827f0100000000000000000000000000000000000000000000000000000000000000900460ff161015612016576030827f01000000000000000000000000000000000000000000000000000000000000009004017f0100000000000000000000000000000000000000000000000000000000000000029050612062565b6057827f01000000000000000000000000000000000000000000000000000000000000009004017f01000000000000000000000000000000000000000000000000000000000000000290505b919050565b606063404299467c01000000000000000000000000000000000000000000000000000000000260008084600001518560200151866040015187606001516001896080015160000151604051602401808973ffffffffffffffffffffffffffffffffffffffff1673ffffffffffffffffffffffffffffffffffffffff1681526020018881526020018781526020018673ffffffffffffffffffffffffffffffffffffffff1673ffffffffffffffffffffffffffffffffffffffff168152602001857bffffffffffffffffffffffffffffffffffffffffffffffffffffffff19167bffffffffffffffffffffffffffffffffffffffffffffffffffffffff1916815260200184815260200183815260200180602001828103825283818151815260200191508051906020019080838360005b838110156121b2578082015181840152602081019050612197565b50505050905090810190601f1680156121df5780820380516001836020036101000a031916815260200191505b509950505050505050505050604051602081830303815290604052907bffffffffffffffffffffffffffffffffffffffffffffffffffffffff19166020820180517bffffffffffffffffffffffffffffffffffffffffffffffffffffffff83818316178352505050509050919050565b6017811161227f576122798160058460ff169060020a0260ff1617846123c590919063ffffffff16565b5061239e565b60ff81116122c4576122a7601860058460ff169060020a0217846123c590919063ffffffff16565b506122be816001856123e59092919063ffffffff16565b5061239d565b61ffff811161230a576122ed601960058460ff169060020a0217846123c590919063ffffffff16565b50612304816002856123e59092919063ffffffff16565b5061239c565b63ffffffff811161235257612335601a60058460ff169060020a0217846123c590919063ffffffff16565b5061234c816004856123e59092919063ffffffff16565b5061239b565b67ffffffffffffffff811161239a57612381601b60058460ff169060020a0217846123c590919063ffffffff16565b50612398816008856123e59092919063ffffffff16565b505b5b5b5b5b505050565b6123ab612794565b6123bd83846000015151848551612407565b905092915050565b6123cd612794565b6123dd83846000015151846124c0565b905092915050565b6123ed612794565b6123fe84856000015151858561250e565b90509392505050565b61240f612794565b825182111561241d57600080fd5b8460200151828501111561244857612447856002612441886020015188870161256f565b0261258b565b5b6000808651805187602083010193508088870111156124675787860182525b60208701925050505b602084106124935780518252602082019150602081019050602084039350612470565b60006001856020036101000a03905080198251168184511681811785525050879350505050949350505050565b6124c8612794565b836020015183106124e5576124e484600286602001510261258b565b5b8351805160208583010184815381861415612501576001820183525b5050508390509392505050565b612516612794565b84602001518483011115612534576125338560028685010261258b565b5b60006001836101000a03905085518386820101858319825116178152815185880111156125615784870182525b505085915050949350505050565b60008183111561258157829050612585565b8190505b92915050565b60608260000151905061259e83836118bc565b506125a983826123a3565b50505050565b6040518060c00160405280600067ffffffffffffffff16815260200160608152602001600073ffffffffffffffffffffffffffffffffffffffff168152602001600063ffffffff168152602001600073ffffffffffffffffffffffffffffffffffffffff168152602001612621612794565b81525090565b828054600181600116156101000203166002900490600052602060002090601f016020900481019282601f1061266857805160ff1916838001178555612696565b82800160010185558215612696579182015b8281111561269557825182559160200191906001019061267a565b5b5090506126a391906127ae565b5090565b828054600181600116156101000203166002900490600052602060002090601f016020900481019282601f106126e857805160ff1916838001178555612716565b82800160010185558215612716579182015b828111156127155782518255916020019190600101906126fa565b5b50905061272391906127ae565b5090565b6040518060a0016040528060008019168152602001600073ffffffffffffffffffffffffffffffffffffffff16815260200160007bffffffffffffffffffffffffffffffffffffffffffffffffffffffff191681526020016000815260200161278e612794565b81525090565b604051806040016040528060608152602001600081525090565b6127d091905b808211156127cc5760008160009055506001016127b4565b5090565b9056fe4f6e6c7920746865206f726967696e61746f72206f6620746865206d6573736167652063616e2063616c6c20612066756e6374696f6e20776974682069742e756e61626c6520746f207472616e73666572416e6443616c6c20746f206f7261636c65536f75726365206d75737420626520746865206f7261636c65206f662074686520726571756573744f6e6c7920746865206f776e65722063616e207365742061206e6577206f776e6572a264697066735822122010458bd5f9bc3b6a318c20c0e415d428133c5e84f77f6d554884c1094aacb0b264736f6c63430006060033",
  "immutableReferences": {},
  "source": "// SPDX-License-Identifier: MIT\npragma solidity >=0.6.0;\n\nimport \"@chainlink/contracts/src/v0.6/ChainlinkClient.sol\";\nimport \"./Math.sol\";\n\ncontract FunctionCallerV3 is ChainlinkClient, Math {\n\n    using CBORChainlink for BufferChainlink.buffer;\n    // using Chainlink for Chainlink.Request;\n\n    struct Message {\n        uint64 id;\n        string method;\n        address callback;\n        uint32 amount;\n        address destination;\n        BufferChainlink.buffer buf;\n    }\n\n    Message[] allMessages;\n\n    uint256 internal constant defaultBufferSize = 256; // solhint-disable-line const-name-snakecase\n    uint64 messageCounter;\n    address owner;\n    mapping(uint64 => Message) private messages;\n    mapping(uint64 => address) private messageOwners;\n\n    // Chainlink Client Declarations\n    uint256 fee;\n    bytes32 jobId;\n    address OracleAddress;\n\n    constructor(address _oracleAddress) public {\n        setPublicChainlinkToken();\n        messageCounter = 0;\n\n        // Chainlink Client Info\n        fee = 1 * 10 ** 18;\n        OracleAddress = _oracleAddress;\n    }\n\n    //** CONTRACT EVENTS **//\n    event FunctionExecuted(bool success, address destination, string method);\n    event MessageSuccess(uint256 id, string method, address callback, uint32 amount, address destination);\n\n    // ** CONTRACT LOGIC **//\n\n    // ** OUTBOUND LOGIC **//\n\n    /**\n   * @notice Initializes a Atlantic Message for CCIP\n   * @dev Sets the ID, method, callback, amount, and destination on the request\n   * @param _method The function method\n   * @param _callback The callback address\n   * @param _amount The transfer amount\n   * @param _destination The call destination\n   * @return id The id\n   */\n    function initializeMessage(\n        string calldata _method,\n        address _callback,\n        uint32 _amount,\n        address _destination\n    ) external returns (uint64 id) {\n        Message memory message;\n        id = messageCounter + 1;\n        messageCounter++;\n        messageOwners[id] = msg.sender;\n        BufferChainlink.init(message.buf, defaultBufferSize);\n        message.id = id;\n        message.method = _method;\n        message.callback = _callback;\n        message.amount = _amount;\n        message.destination = _destination;\n        messages[id] = message;\n        return id;\n    }\n\n    /**\n    * @notice Sets the data for the buffer without encoding CBOR on-chain\n    * @dev CBOR can be closed with curly-brackets {} or they can be left off\n    * @param self The initialized request\n    * @param _data The CBOR data\n    */\n    function setBuffer(Message memory self, bytes memory _data) internal pure {\n        BufferChainlink.init(self.buf, _data.length);\n        BufferChainlink.append(self.buf, _data);\n    }\n\n    /**\n    * @notice Adds a string value to the request with a given key name\n    * @param _id The id of the messages\n    * @param _key The name of the key\n    * @param _value The string value to add\n    */\n    function add(uint64 _id, string memory _key, string memory _value) internal view {\n        Message memory message = messages[_id];\n        message.buf.encodeString(_key);\n        message.buf.encodeString(_value);\n    }\n\n    /**\n    * @notice Adds a bytes value to the request with a given key name\n    * @param _id The id of the message\n    * @param _key The name of the key\n    * @param _value The bytes value to add\n    */\n    function addBytes(uint64 _id, string memory _key, bytes memory _value) internal view {\n        Message memory message = messages[_id];\n        message.buf.encodeString(_key);\n        message.buf.encodeBytes(_value);\n    }\n\n    /**\n    * @notice Adds a int256 value to the request with a given key name\n    * @param _id The id of the message\n    * @param _key The name of the key\n    * @param _value The int256 value to add\n    */\n    function addInt(uint64 _id, string memory _key, int256 _value) internal view {\n        Message memory message = messages[_id];\n        message.buf.encodeString(_key);\n        message.buf.encodeInt(_value);\n    }\n\n    /**\n    * @notice Adds a uint256 value to the request with a given key name\n    * @param _id The id of the message\n    * @param _key The name of the key\n    * @param _value The uint256 value to add\n    */\n    function addUint(uint64 _id, string memory _key, uint256 _value) internal view {\n        Message memory message = messages[_id];\n        message.buf.encodeString(_key);\n        message.buf.encodeUInt(_value);\n    }\n\n    /**\n    * @notice Adds an array of strings to the request with a given key name\n    * @param _id The id of the message\n    * @param _key The name of the key\n    * @param _values The array of string values to add\n    */\n    function addStringArray(uint64 _id, string memory _key, string[] memory _values) internal view {\n        Message memory message = messages[_id];\n        message.buf.encodeString(_key);\n        message.buf.startArray();\n        for (uint256 i = 0; i < _values.length; i++) {\n            message.buf.encodeString(_values[i]);\n        }\n        message.buf.endSequence();\n    }\n\n    function callFunction(uint64 _id, string calldata _chainId) external {\n        require(messageOwners[_id] == msg.sender, \"Only the originator of the message can call a function with it.\");\n        Message memory message = messages[_id];\n        sendToRemoteChain(_chainId, message);\n    }\n\n    /**\n    * @notice Sets the jobId to be called on the Chainlink Node.\n    * @param _jobId The jobId of the tasks on the Chainlink Node\n    */\n    function setJobId(string memory _jobId) public {\n        jobId = stringToBytes32(_jobId);\n    }\n\n    function sendToRemoteChain(string memory _chainId, Message memory _message) private {\n        // Send data to Chainlink node/CCIP however necessary\n        Chainlink.Request memory request = buildChainlinkRequest(jobId, address(this), this.fulfill.selector);\n\n        request.add(\"chainId\", _chainId);\n        request.addUint(\"id\", _message.id);\n        request.add(\"method\", _message.method);\n        request.add(\"callback\", toAsciiString(_message.callback));\n        request.addUint(\"amount\", _message.amount);\n        request.add(\"destination\", toAsciiString(_message.destination));\n\n        sendChainlinkRequestTo(OracleAddress, request, fee);\n    }\n\n    /**\n    * @notice The fulfill function for the Chainlink EA Job.\n    * @param _requestId The Chainlink request id.\n    * @param _messageId The message transmitted.\n    */\n    function fulfill(bytes32 _requestId, uint64 _messageId) public recordChainlinkFulfillment(_requestId)\n    {\n        Message memory message = messages[_messageId];\n        emit MessageSuccess(message.id, message.method, message.callback, message.amount, message.destination);\n    }\n\n    // ** INBOUND LOGIC **//\n\n    function receiveFromRemoteChain(string calldata _method, address _callback, uint32 _amount, address _destination) external {\n        // decode buffer\n        // call execute function\n        executeFunction(_method, _callback, _amount, _destination);\n    }\n\n    function executeFunction(string memory _method, address _callback, uint32 _amount, address _destination) private {\n        // https://ethereum.stackexchange.com/questions/9733/calling-function-from-deployed-contract\n        // https://stackoverflow.com/questions/54360047/calling-function-from-already-deployed-contract-in-solidity\n        // https://medium.com/@houzier.saurav/calling-functions-of-other-contracts-on-solidity-9c80eed05e0f\n        // https://ethereum.stackexchange.com/questions/64881/how-does-delegatecall-work-from-solidity-0-5-0-onwards\n    }\n\n    //** CONTRACT GOVERNANCE **//\n    function setOwner(address _address) external {\n        require(msg.sender == owner, \"Only the owner can set a new owner\");\n        owner = _address;\n    }\n\n    function getOwner() external view returns(address) {\n        return owner;\n    }\n}",
  "sourcePath": "/home/karl/Documents/SoftwareDevelopment/ETHGlobal/Atlantic/packages/truffle/contracts/FunctionCallerV3.sol",
  "compiler": {
    "name": "solc",
    "version": "0.6.6+commit.6c089d02.Emscripten.clang"
  },
  "schemaVersion": "3.4.3",
  "updatedAt": "2021-10-06T19:11:36.379Z",
  "networkType": "ethereum",
  "devdoc": {
    "methods": {
      "asciiToInteger(bytes32)": {
        "details": "Returns the uint256 value from a given bytes32 string.     "
      },
      "fulfill(bytes32,uint64)": {
        "params": {
          "_messageId": "The message transmitted.",
          "_requestId": "The Chainlink request id."
        }
      },
      "initializeMessage(string,address,uint32,address)": {
        "details": "Sets the ID, method, callback, amount, and destination on the request",
        "params": {
          "_amount": "The transfer amount",
          "_callback": "The callback address",
          "_destination": "The call destination",
          "_method": "The function method"
        },
        "returns": {
          "id": "The id"
        }
      },
      "setJobId(string)": {
        "params": {
          "_jobId": "The jobId of the tasks on the Chainlink Node"
        }
      }
    }
  },
  "userdoc": {
    "methods": {
      "fulfill(bytes32,uint64)": {
        "notice": "The fulfill function for the Chainlink EA Job."
      },
      "initializeMessage(string,address,uint32,address)": {
        "notice": "Initializes a Atlantic Message for CCIP"
      },
      "setJobId(string)": {
        "notice": "Sets the jobId to be called on the Chainlink Node."
      }
    }
  }
}