{
  "contractName": "ReceiveMessage",
  "abi": [
    {
      "inputs": [],
      "stateMutability": "nonpayable",
      "type": "constructor"
    },
    {
      "anonymous": false,
      "inputs": [
        {
          "indexed": false,
          "internalType": "string",
          "name": "_method",
          "type": "string"
        },
        {
          "indexed": false,
          "internalType": "address",
          "name": "_callback",
          "type": "address"
        },
        {
          "indexed": false,
          "internalType": "uint32",
          "name": "_amount",
          "type": "uint32"
        },
        {
          "indexed": false,
          "internalType": "address",
          "name": "_destination",
          "type": "address"
        }
      ],
      "name": "FunctionExecuted",
      "type": "event"
    },
    {
      "inputs": [
        {
          "internalType": "bytes32",
          "name": "x",
          "type": "bytes32"
        }
      ],
      "name": "asciiToInteger",
      "outputs": [
        {
          "internalType": "uint256",
          "name": "",
          "type": "uint256"
        }
      ],
      "stateMutability": "pure",
      "type": "function",
      "constant": true
    },
    {
      "inputs": [
        {
          "internalType": "bytes",
          "name": "b",
          "type": "bytes"
        }
      ],
      "name": "bytesToUint",
      "outputs": [
        {
          "internalType": "uint256",
          "name": "",
          "type": "uint256"
        }
      ],
      "stateMutability": "pure",
      "type": "function",
      "constant": true
    },
    {
      "inputs": [
        {
          "internalType": "string",
          "name": "source",
          "type": "string"
        }
      ],
      "name": "stringToBytes32",
      "outputs": [
        {
          "internalType": "bytes32",
          "name": "result",
          "type": "bytes32"
        }
      ],
      "stateMutability": "pure",
      "type": "function",
      "constant": true
    },
    {
      "inputs": [
        {
          "internalType": "uint256",
          "name": "i",
          "type": "uint256"
        }
      ],
      "name": "uintToBytes",
      "outputs": [
        {
          "internalType": "bytes",
          "name": "",
          "type": "bytes"
        }
      ],
      "stateMutability": "pure",
      "type": "function",
      "constant": true
    },
    {
      "inputs": [
        {
          "internalType": "uint64",
          "name": "_messageId",
          "type": "uint64"
        }
      ],
      "name": "getMessage",
      "outputs": [
        {
          "internalType": "uint256",
          "name": "",
          "type": "uint256"
        },
        {
          "internalType": "address",
          "name": "",
          "type": "address"
        },
        {
          "internalType": "address",
          "name": "",
          "type": "address"
        },
        {
          "internalType": "uint64",
          "name": "",
          "type": "uint64"
        },
        {
          "internalType": "string",
          "name": "",
          "type": "string"
        }
      ],
      "stateMutability": "view",
      "type": "function",
      "constant": true
    },
    {
      "inputs": [
        {
          "internalType": "string",
          "name": "_method",
          "type": "string"
        },
        {
          "internalType": "address",
          "name": "_callback",
          "type": "address"
        },
        {
          "internalType": "uint32",
          "name": "_amount",
          "type": "uint32"
        },
        {
          "internalType": "address",
          "name": "_destination",
          "type": "address"
        },
        {
          "internalType": "uint64",
          "name": "_id",
          "type": "uint64"
        }
      ],
      "name": "receiveFromRemoteChain",
      "outputs": [],
      "stateMutability": "nonpayable",
      "type": "function"
    },
    {
      "inputs": [
        {
          "internalType": "address",
          "name": "_address",
          "type": "address"
        }
      ],
      "name": "setOwner",
      "outputs": [],
      "stateMutability": "nonpayable",
      "type": "function"
    },
    {
      "inputs": [],
      "name": "getOwner",
      "outputs": [
        {
          "internalType": "address",
          "name": "",
          "type": "address"
        }
      ],
      "stateMutability": "view",
      "type": "function",
      "constant": true
    }
  ],
  "bytecode": "0x608060405234801561001057600080fd5b506000600160006101000a81548167ffffffffffffffff021916908367ffffffffffffffff1602179055506112468061004a6000396000f3fe608060405234801561001057600080fd5b50600436106100a5576000357c010000000000000000000000000000000000000000000000000000000090048063893d20e811610078578063893d20e81461041557806394e8767d1461045f57806399b2c1c714610506578063cfb5192814610548576100a5565b806302d06d05146100aa57806313af4035146101795780632f86d246146101bd578063539ca17a146102dc575b600080fd5b610163600480360360208110156100c057600080fd5b81019080803590602001906401000000008111156100dd57600080fd5b8201836020820111156100ef57600080fd5b8035906020019184600183028401116401000000008311171561011157600080fd5b91908080601f016020809104026020016040519081016040528093929190818152602001838380828437600081840152601f19601f820116905080830192505050505050509192919290505050610617565b6040518082815260200191505060405180910390f35b6101bb6004803603602081101561018f57600080fd5b81019080803573ffffffffffffffffffffffffffffffffffffffff1690602001909291905050506106ce565b005b6102da600480360360a08110156101d357600080fd5b81019080803590602001906401000000008111156101f057600080fd5b82018360208201111561020257600080fd5b8035906020019184600183028401116401000000008311171561022457600080fd5b91908080601f016020809104026020016040519081016040528093929190818152602001838380828437600081840152601f19601f820116905080830192505050505050509192919290803573ffffffffffffffffffffffffffffffffffffffff169060200190929190803563ffffffff169060200190929190803573ffffffffffffffffffffffffffffffffffffffff169060200190929190803567ffffffffffffffff1690602001909291905050506107b8565b005b610312600480360360208110156102f257600080fd5b81019080803567ffffffffffffffff169060200190929190505050610b3f565b604051808681526020018573ffffffffffffffffffffffffffffffffffffffff1673ffffffffffffffffffffffffffffffffffffffff1681526020018473ffffffffffffffffffffffffffffffffffffffff1673ffffffffffffffffffffffffffffffffffffffff1681526020018367ffffffffffffffff1667ffffffffffffffff16815260200180602001828103825283818151815260200191508051906020019080838360005b838110156103d65780820151818401526020810190506103bb565b50505050905090810190601f1680156104035780820380516001836020036101000a031916815260200191505b50965050505050505060405180910390f35b61041d610d5f565b604051808273ffffffffffffffffffffffffffffffffffffffff1673ffffffffffffffffffffffffffffffffffffffff16815260200191505060405180910390f35b61048b6004803603602081101561047557600080fd5b8101908080359060200190929190505050610d89565b6040518080602001828103825283818151815260200191508051906020019080838360005b838110156104cb5780820151818401526020810190506104b0565b50505050905090810190601f1680156104f85780820380516001836020036101000a031916815260200191505b509250505060405180910390f35b6105326004803603602081101561051c57600080fd5b8101908080359060200190929190505050610de9565b6040518082815260200191505060405180910390f35b6106016004803603602081101561055e57600080fd5b810190808035906020019064010000000081111561057b57600080fd5b82018360208201111561058d57600080fd5b803590602001918460018302840111640100000000831117156105af57600080fd5b91908080601f016020809104026020016040519081016040528093929190818152602001838380828437600081840152601f19601f820116905080830192505050505050509192919290505050610e5c565b6040518082815260200191505060405180910390f35b60008060008090505b83518110156106c4576001810184510360080260020a84828151811061064257fe5b60200101517f010000000000000000000000000000000000000000000000000000000000000090047f0100000000000000000000000000000000000000000000000000000000000000027f0100000000000000000000000000000000000000000000000000000000000000900460ff1602820191508080600101915050610620565b5080915050919050565b600160089054906101000a900473ffffffffffffffffffffffffffffffffffffffff1673ffffffffffffffffffffffffffffffffffffffff163373ffffffffffffffffffffffffffffffffffffffff1614610774576040517f08c379a00000000000000000000000000000000000000000000000000000000081526004018080602001828103825260228152602001806111ef6022913960400191505060405180910390fd5b80600160086101000a81548173ffffffffffffffffffffffffffffffffffffffff021916908373ffffffffffffffffffffffffffffffffffffffff16021790555050565b6107c06110de565b81816000019067ffffffffffffffff16908167ffffffffffffffff168152505085816020018190525084816040019073ffffffffffffffffffffffffffffffffffffffff16908173ffffffffffffffffffffffffffffffffffffffff168152505083816060019063ffffffff16908163ffffffff168152505082816080019073ffffffffffffffffffffffffffffffffffffffff16908173ffffffffffffffffffffffffffffffffffffffff168152505080600260008467ffffffffffffffff1667ffffffffffffffff16815260200190815260200160002060008201518160000160006101000a81548167ffffffffffffffff021916908367ffffffffffffffff16021790555060208201518160010190805190602001906108e4929190611149565b5060408201518160020160006101000a81548173ffffffffffffffffffffffffffffffffffffffff021916908373ffffffffffffffffffffffffffffffffffffffff16021790555060608201518160020160146101000a81548163ffffffff021916908363ffffffff16021790555060808201518160030160006101000a81548173ffffffffffffffffffffffffffffffffffffffff021916908373ffffffffffffffffffffffffffffffffffffffff16021790555090505060405160200180807f6578656375746546756e6374696f6e0000000000000000000000000000000000815250600f0190506040516020818303038152906040528051906020012081602001516040516020018082805190602001908083835b60208310610a1f57805182526020820191506020810190506020830392506109fc565b6001836020036101000a038019825116818451168082178552505050505050905001915050604051602081830303815290604052805190602001201415610a6a57610a6981610e88565b5b60405160200180807f6578656375746546756e6374696f6e54776f000000000000000000000000000081525060120190506040516020818303038152906040528051906020012081602001516040516020018082805190602001908083835b60208310610aec5780518252602082019150602081019050602083039250610ac9565b6001836020036101000a038019825116818451168082178552505050505050905001915050604051602081830303815290604052805190602001201415610b3757610b3681610fb3565b5b505050505050565b6000806000806060610b4f6110de565b600260008867ffffffffffffffff1667ffffffffffffffff1681526020019081526020016000206040518060a00160405290816000820160009054906101000a900467ffffffffffffffff1667ffffffffffffffff1667ffffffffffffffff168152602001600182018054600181600116156101000203166002900480601f016020809104026020016040519081016040528092919081815260200182805460018160011615610100020316600290048015610c4c5780601f10610c2157610100808354040283529160200191610c4c565b820191906000526020600020905b815481529060010190602001808311610c2f57829003601f168201915b505050505081526020016002820160009054906101000a900473ffffffffffffffffffffffffffffffffffffffff1673ffffffffffffffffffffffffffffffffffffffff1673ffffffffffffffffffffffffffffffffffffffff1681526020016002820160149054906101000a900463ffffffff1663ffffffff1663ffffffff1681526020016003820160009054906101000a900473ffffffffffffffffffffffffffffffffffffffff1673ffffffffffffffffffffffffffffffffffffffff1673ffffffffffffffffffffffffffffffffffffffff16815250509050806060015181604001518260800151836000015184602001518463ffffffff169450955095509550955095505091939590929450565b6000600160089054906101000a900473ffffffffffffffffffffffffffffffffffffffff16905090565b606080602067ffffffffffffffff81118015610da457600080fd5b506040519080825280601f01601f191660200182016040528015610dd75781602001600182028036833780820191505090505b50905082602082015280915050919050565b60008060008090505b6020811015610e5257600060ff600883028660019004908060020a820491505016905080603011158015610e27575060398111155b15610e3e5781600a0a603082030283019250610e44565b50610e52565b508080600101915050610df2565b5080915050919050565b60006060829050600081511415610e7a576000600102915050610e83565b60208301519150505b919050565b7f76a19aa29f6ddfea1300d53d8e681f7bcd83077c3fe7c465b9cdeb27b6951c14816020015182604001518360600151846080015160405180806020018573ffffffffffffffffffffffffffffffffffffffff1673ffffffffffffffffffffffffffffffffffffffff1681526020018463ffffffff1663ffffffff1681526020018373ffffffffffffffffffffffffffffffffffffffff1673ffffffffffffffffffffffffffffffffffffffff168152602001828103825286818151815260200191508051906020019080838360005b83811015610f73578082015181840152602081019050610f58565b50505050905090810190601f168015610fa05780820380516001836020036101000a031916815260200191505b509550505050505060405180910390a150565b7f76a19aa29f6ddfea1300d53d8e681f7bcd83077c3fe7c465b9cdeb27b6951c14816020015182604001518360600151846080015160405180806020018573ffffffffffffffffffffffffffffffffffffffff1673ffffffffffffffffffffffffffffffffffffffff1681526020018463ffffffff1663ffffffff1681526020018373ffffffffffffffffffffffffffffffffffffffff1673ffffffffffffffffffffffffffffffffffffffff168152602001828103825286818151815260200191508051906020019080838360005b8381101561109e578082015181840152602081019050611083565b50505050905090810190601f1680156110cb5780820380516001836020036101000a031916815260200191505b509550505050505060405180910390a150565b6040518060a00160405280600067ffffffffffffffff16815260200160608152602001600073ffffffffffffffffffffffffffffffffffffffff168152602001600063ffffffff168152602001600073ffffffffffffffffffffffffffffffffffffffff1681525090565b828054600181600116156101000203166002900490600052602060002090601f016020900481019282601f1061118a57805160ff19168380011785556111b8565b828001600101855582156111b8579182015b828111156111b757825182559160200191906001019061119c565b5b5090506111c591906111c9565b5090565b6111eb91905b808211156111e75760008160009055506001016111cf565b5090565b9056fe4f6e6c7920746865206f776e65722063616e207365742061206e6577206f776e6572a2646970667358221220576dda86b67f18e10b47b779fd8f42afbcf3bc7d2819589a2b842b9ad6949f4564736f6c63430006060033",
  "immutableReferences": {},
  "source": "// SPDX-License-Identifier: MIT\npragma solidity >=0.6.0;\n\nimport \"./Math.sol\";\n\ncontract ReceiveMessage is Math {\n\n    struct Message {\n        uint64 id;\n        string method;\n        address callback;\n        uint32 amount;\n        address destination;\n    }\n\n    Message[] allMessages;\n\n    uint256 internal constant defaultBufferSize = 256; // solhint-disable-line const-name-snakecase\n    uint64 messageCounter;\n    address owner;\n    mapping(uint64 => Message) private messages;\n    mapping(uint64 => address) private messageOwners;\n\n    // Chainlink Client Declarations\n    uint256 fee;\n    bytes32 jobId;\n    address OracleAddress;\n\n    constructor() public {\n        messageCounter = 0;\n    }\n\n    //** CONTRACT EVENTS **//\n    event FunctionExecuted(string _method, address _callback, uint32 _amount, address _destination);\n\n    // ** CONTRACT LOGIC **//\n    function getMessage(uint64 _messageId) public view returns (uint256, address, address, uint64, string memory) {\n        Message memory message = messages[_messageId];\n        return (message.amount, message.callback, message.destination, message.id, message.method);\n    }\n\n    // ** INBOUND LOGIC **//\n\n    function receiveFromRemoteChain(\n        string memory _method,\n        address _callback,\n        uint32 _amount,\n        address _destination,\n        uint64 _id\n    ) public {\n\n        // ** SAVE MESSAGE ** //\n        Message memory message;\n        message.id = _id;\n        message.method = _method;\n        message.callback = _callback;\n        message.amount = _amount;\n        message.destination = _destination;\n        messages[_id] = message;\n\n        // ** EXECUTE FUNCTION ** //\n        if (keccak256(abi.encodePacked(message.method)) == keccak256(abi.encodePacked(\"executeFunction\"))) {\n            executeFunction(message);\n        }\n        \n        if (keccak256(abi.encodePacked(message.method)) == keccak256(abi.encodePacked(\"executeFunctionTwo\"))) {\n            executeFunctionTwo(message);\n        }\n    }\n\n    function executeFunction(Message memory message) private {\n        emit FunctionExecuted(message.method, message.callback, message.amount, message.destination);\n    }\n\n    function executeFunctionTwo(Message memory message) private {\n        emit FunctionExecuted(message.method, message.callback, message.amount, message.destination);\n    }\n\n    //** CONTRACT GOVERNANCE **//\n    function setOwner(address _address) external {\n        require(msg.sender == owner, \"Only the owner can set a new owner\");\n        owner = _address;\n    }\n\n    function getOwner() external view returns(address) {\n        return owner;\n    }\n}",
  "sourcePath": "/home/karl/Documents/SoftwareDevelopment/ETHGlobal/Atlantic/packages/truffle/contracts/ReceiveMessage.sol",
  "compiler": {
    "name": "solc",
    "version": "0.6.6+commit.6c089d02.Emscripten.clang"
  },
  "schemaVersion": "3.4.3",
  "updatedAt": "2021-10-06T19:11:36.387Z",
  "networkType": "ethereum",
  "devdoc": {
    "methods": {
      "asciiToInteger(bytes32)": {
        "details": "Returns the uint256 value from a given bytes32 string.     "
      }
    }
  },
  "userdoc": {
    "methods": {}
  }
}