{
  "contractName": "apiConsumer",
  "abi": [
    {
      "inputs": [],
      "stateMutability": "nonpayable",
      "type": "constructor"
    },
    {
      "anonymous": false,
      "inputs": [
        {
          "indexed": true,
          "internalType": "bytes32",
          "name": "id",
          "type": "bytes32"
        }
      ],
      "name": "ChainlinkCancelled",
      "type": "event"
    },
    {
      "anonymous": false,
      "inputs": [
        {
          "indexed": true,
          "internalType": "bytes32",
          "name": "id",
          "type": "bytes32"
        }
      ],
      "name": "ChainlinkFulfilled",
      "type": "event"
    },
    {
      "anonymous": false,
      "inputs": [
        {
          "indexed": true,
          "internalType": "bytes32",
          "name": "id",
          "type": "bytes32"
        }
      ],
      "name": "ChainlinkRequested",
      "type": "event"
    },
    {
      "inputs": [],
      "name": "volume",
      "outputs": [
        {
          "internalType": "uint256",
          "name": "",
          "type": "uint256"
        }
      ],
      "stateMutability": "view",
      "type": "function"
    },
    {
      "inputs": [],
      "name": "requestVolumeData",
      "outputs": [
        {
          "internalType": "bytes32",
          "name": "requestId",
          "type": "bytes32"
        }
      ],
      "stateMutability": "nonpayable",
      "type": "function"
    },
    {
      "inputs": [
        {
          "internalType": "string",
          "name": "username",
          "type": "string"
        }
      ],
      "name": "requestGitHubUserInfo",
      "outputs": [
        {
          "internalType": "bytes32",
          "name": "requestId",
          "type": "bytes32"
        }
      ],
      "stateMutability": "nonpayable",
      "type": "function"
    },
    {
      "inputs": [
        {
          "internalType": "bytes32",
          "name": "_requestId",
          "type": "bytes32"
        },
        {
          "internalType": "uint256",
          "name": "_volume",
          "type": "uint256"
        }
      ],
      "name": "fulfill",
      "outputs": [],
      "stateMutability": "nonpayable",
      "type": "function"
    }
  ],
  "bytecode": "0x6080604052600160045534801561001557600080fd5b5061002d6100bd640100000000026401000000009004565b732f90a6d021db21e1b2a077c5a37b3c7e75d15b7e600760006101000a81548173ffffffffffffffffffffffffffffffffffffffff021916908373ffffffffffffffffffffffffffffffffffffffff1602179055507f323966613961613133626631343638373838623763633461353030613435623860088190555067016345785d8a00006009819055506101cb565b61018573c89bd4e1632d3a43cb03aaad5262cbe4038bc57173ffffffffffffffffffffffffffffffffffffffff166338cc48316040518163ffffffff167c010000000000000000000000000000000000000000000000000000000002815260040160206040518083038186803b15801561013657600080fd5b505afa15801561014a573d6000803e3d6000fd5b505050506040513d602081101561016057600080fd5b8101908080519060200190929190505050610187640100000000026401000000009004565b565b80600260006101000a81548173ffffffffffffffffffffffffffffffffffffffff021916908373ffffffffffffffffffffffffffffffffffffffff16021790555050565b611292806101da6000396000f3fe608060405234801561001057600080fd5b5060043610610069576000357c010000000000000000000000000000000000000000000000000000000090048063015b5ba51461006e5780634357855e1461013d5780636021abac14610175578063c618a1e414610193575b600080fd5b6101276004803603602081101561008457600080fd5b81019080803590602001906401000000008111156100a157600080fd5b8201836020820111156100b357600080fd5b803590602001918460018302840111640100000000831117156100d557600080fd5b91908080601f016020809104026020016040519081016040528093929190818152602001838380828437600081840152601f19601f8201169050808301925050505050505091929192905050506101b1565b6040518082815260200191505060405180910390f35b6101736004803603604081101561015357600080fd5b810190808035906020019092919080359060200190929190505050610378565b005b61017d61049f565b6040518082815260200191505060405180910390f35b61019b610642565b6040518082815260200191505060405180910390f35b6000806101e460085430634357855e7c010000000000000000000000000000000000000000000000000000000002610648565b90506102c26040518060400160405280600381526020017f67657400000000000000000000000000000000000000000000000000000000008152508460405160200180807f68747470733a2f2f6170692e6769746875622e636f6d2f75736572732f000000815250601d0182805190602001908083835b6020831061027e578051825260208201915060208101905060208303925061025b565b6001836020036101000a038019825116818451168082178552505050505050905001915050604051602081830303815290604052836106799092919063ffffffff16565b6103416040518060400160405280600481526020017f70617468000000000000000000000000000000000000000000000000000000008152506040518060400160405280600481526020017f6e616d6500000000000000000000000000000000000000000000000000000000815250836106799092919063ffffffff16565b610370600760009054906101000a900473ffffffffffffffffffffffffffffffffffffffff16826009546106ac565b915050919050565b816005600082815260200190815260200160002060009054906101000a900473ffffffffffffffffffffffffffffffffffffffff1673ffffffffffffffffffffffffffffffffffffffff163373ffffffffffffffffffffffffffffffffffffffff1614610430576040517f08c379a00000000000000000000000000000000000000000000000000000000081526004018080602001828103825260288152602001806111ec6028913960400191505060405180910390fd5b6005600082815260200190815260200160002060006101000a81549073ffffffffffffffffffffffffffffffffffffffff0219169055807f7cc135e0cebb02c3480ae5d74d377283180a2601f8f644edf7987b009316c63a60405160405180910390a281600681905550505050565b6000806104d260085430634357855e7c010000000000000000000000000000000000000000000000000000000002610648565b90506105366040518060400160405280600381526020017f676574000000000000000000000000000000000000000000000000000000000081525060405180608001604052806049815260200161121460499139836106799092919063ffffffff16565b6105b56040518060400160405280600481526020017f70617468000000000000000000000000000000000000000000000000000000008152506040518060400160405280601881526020017f5241572e4554482e5553442e564f4c554d453234484f55520000000000000000815250836106799092919063ffffffff16565b6000670de0b6b3a7640000905061060c6040518060400160405280600581526020017f74696d6573000000000000000000000000000000000000000000000000000000815250828461095f9092919063ffffffff16565b61063b600760009054906101000a900473ffffffffffffffffffffffffffffffffffffffff16836009546106ac565b9250505090565b60065481565b610650611141565b610658611141565b61066f85858584610992909392919063ffffffff16565b9150509392505050565b610690828460800151610a4290919063ffffffff16565b6106a7818460800151610a4290919063ffffffff16565b505050565b600030600454604051602001808373ffffffffffffffffffffffffffffffffffffffff166c0100000000000000000000000002815260140182815260200192505050604051602081830303815290604052805190602001209050600454836060018181525050836005600083815260200190815260200160002060006101000a81548173ffffffffffffffffffffffffffffffffffffffff021916908373ffffffffffffffffffffffffffffffffffffffff160217905550807fb5e6e01e79f91267dc17b4e6314d5d4d03593d2ceee0fbb452b750bd70ea5af960405160405180910390a2600260009054906101000a900473ffffffffffffffffffffffffffffffffffffffff1673ffffffffffffffffffffffffffffffffffffffff16634000aea085846107dc876002610a67565b6040518463ffffffff167c0100000000000000000000000000000000000000000000000000000000028152600401808473ffffffffffffffffffffffffffffffffffffffff16815260200183815260200180602001828103825283818151815260200191508051906020019080838360005b8381101561086957808201518184015260208101905061084e565b50505050905090810190601f1680156108965780820380516001836020036101000a031916815260200191505b50945050505050602060405180830381600087803b1580156108b757600080fd5b505af11580156108cb573d6000803e3d6000fd5b505050506040513d60208110156108e157600080fd5b8101908080519060200190929190505050610947576040517f08c379a00000000000000000000000000000000000000000000000000000000081526004018080602001828103825260238152602001806111c96023913960400191505060405180910390fd5b60016004600082825401925050819055509392505050565b610976828460800151610a4290919063ffffffff16565b61098d818460800151610c0490919063ffffffff16565b505050565b61099a611141565b6109aa8560800151610100610ca8565b508385600001818152505082856020019073ffffffffffffffffffffffffffffffffffffffff16908173ffffffffffffffffffffffffffffffffffffffff16815250508185604001907bffffffffffffffffffffffffffffffffffffffffffffffffffffffff191690817bffffffffffffffffffffffffffffffffffffffffffffffffffffffff191681525050849050949350505050565b610a4f8260038351610cfc565b610a628183610e5090919063ffffffff16565b505050565b606063404299467c0100000000000000000000000000000000000000000000000000000000026000808560000151866020015187604001518860600151888a6080015160000151604051602401808973ffffffffffffffffffffffffffffffffffffffff1681526020018881526020018781526020018673ffffffffffffffffffffffffffffffffffffffff168152602001857bffffffffffffffffffffffffffffffffffffffffffffffffffffffff1916815260200184815260200183815260200180602001828103825283818151815260200191508051906020019080838360005b83811015610b66578082015181840152602081019050610b4b565b50505050905090810190601f168015610b935780820380516001836020036101000a031916815260200191505b509950505050505050505050604051602081830303815290604052907bffffffffffffffffffffffffffffffffffffffffffffffffffffffff19166020820180517bffffffffffffffffffffffffffffffffffffffffffffffffffffffff8381831617835250505050905092915050565b7fffffffffffffffffffffffffffffffffffffffffffffffff0000000000000000811215610c3b57610c368282610e72565b610ca4565b67ffffffffffffffff811315610c5a57610c558282610ee3565b610ca3565b60008112610c7357610c6e82600083610cfc565b610ca2565b610ca1826001837fffffffffffffffffffffffffffffffffffffffffffffffffffffffffffffffff03610cfc565b5b5b5b5050565b610cb06111ae565b600060208381610cbc57fe5b0614610cd55760208281610ccc57fe5b06602003820191505b81836020018181525050604051808452600081528281016020016040525082905092915050565b60178111610d2c57610d268160058460ff169060020a0260ff161784610f3290919063ffffffff16565b50610e4b565b60ff8111610d7157610d54601860058460ff169060020a021784610f3290919063ffffffff16565b50610d6b81600185610f529092919063ffffffff16565b50610e4a565b61ffff8111610db757610d9a601960058460ff169060020a021784610f3290919063ffffffff16565b50610db181600285610f529092919063ffffffff16565b50610e49565b63ffffffff8111610dff57610de2601a60058460ff169060020a021784610f3290919063ffffffff16565b50610df981600485610f529092919063ffffffff16565b50610e48565b67ffffffffffffffff8111610e4757610e2e601b60058460ff169060020a021784610f3290919063ffffffff16565b50610e4581600885610f529092919063ffffffff16565b505b5b5b5b5b505050565b610e586111ae565b610e6a83846000015151848551610f74565b905092915050565b610e9360036005600660ff169060020a021783610f3290919063ffffffff16565b50610edf82827fffffffffffffffffffffffffffffffffffffffffffffffffffffffffffffffff036040516020018082815260200191505060405160208183030381529060405261102d565b5050565b610f0460026005600660ff169060020a021783610f3290919063ffffffff16565b50610f2e82826040516020018082815260200191505060405160208183030381529060405261102d565b5050565b610f3a6111ae565b610f4a8384600001515184611052565b905092915050565b610f5a6111ae565b610f6b8485600001515185856110a0565b90509392505050565b610f7c6111ae565b8251821115610f8a57600080fd5b84602001518285011115610fb557610fb4856002610fae8860200151888701611101565b0261111d565b5b600080865180518760208301019350808887011115610fd45787860182525b60208701925050505b602084106110005780518252602082019150602081019050602084039350610fdd565b60006001856020036101000a03905080198251168184511681811785525050879350505050949350505050565b61103a8260028351610cfc565b61104d8183610e5090919063ffffffff16565b505050565b61105a6111ae565b836020015183106110775761107684600286602001510261111d565b5b8351805160208583010184815381861415611093576001820183525b5050508390509392505050565b6110a86111ae565b846020015184830111156110c6576110c58560028685010261111d565b5b60006001836101000a03905085518386820101858319825116178152815185880111156110f35784870182525b505085915050949350505050565b60008183111561111357829050611117565b8190505b92915050565b6000826000015190506111308383610ca8565b5061113b8382610e50565b50505050565b6040518060a0016040528060008019168152602001600073ffffffffffffffffffffffffffffffffffffffff16815260200160007bffffffffffffffffffffffffffffffffffffffffffffffffffffffff19168152602001600081526020016111a86111ae565b81525090565b60405180604001604052806060815260200160008152509056fe756e61626c6520746f207472616e73666572416e6443616c6c20746f206f7261636c65536f75726365206d75737420626520746865206f7261636c65206f6620746865207265717565737468747470733a2f2f6d696e2d6170692e63727970746f636f6d706172652e636f6d2f646174612f70726963656d756c746966756c6c3f6673796d733d455448267473796d733d555344a264697066735822122077f965fb69c91424412f96474f813bd22f11cb54efd3bf8af4469facd502fe7464736f6c63430007060033",
  "immutableReferences": {},
  "source": "// SPDX-License-Identifier: MIT\npragma solidity ^0.7.0;\n\nimport \"@chainlink/contracts/src/v0.7/ChainlinkClient.sol\";\n\ncontract apiConsumer is ChainlinkClient {\n\n    using Chainlink for Chainlink.Request;\n  \n    uint256 public volume;\n    \n    address private oracle;\n    bytes32 private jobId;\n    uint256 private fee;\n    \n    /**\n     * Network: Kovan\n     * Oracle: 0x2f90A6D021db21e1B2A077c5a37B3C7E75D15b7e\n     * Job ID: 29fa9aa13bf1468788b7cc4a500a45b8\n     * Fee: 0.1 LINK\n     */\n    constructor() {\n        setPublicChainlinkToken();\n        oracle = 0x2f90A6D021db21e1B2A077c5a37B3C7E75D15b7e;\n        jobId = \"29fa9aa13bf1468788b7cc4a500a45b8\";                                                               \n        fee = 0.1 * 10 ** 18; // 0.1 LINK\n    }\n    \n    /**\n     * Create a Chainlink request to retrieve API response, find the target\n     * data, then multiply by 1000000000000000000 (to remove decimal places from data).\n     */\n    function requestVolumeData() public returns (bytes32 requestId) \n    {\n        Chainlink.Request memory request = buildChainlinkRequest(jobId, address(this), this.fulfill.selector);\n        \n        // Set the URL to perform the GET request on\n        request.add(\"get\", \"https://min-api.cryptocompare.com/data/pricemultifull?fsyms=ETH&tsyms=USD\");\n        \n        // Set the path to find the desired data in the API response, where the response format is:\n        // {\"RAW\":\n        //   {\"ETH\":\n        //    {\"USD\":\n        //     {\n        //      \"VOLUME24HOUR\": xxx.xxx,\n        //     }\n        //    }\n        //   }\n        //  }\n        request.add(\"path\", \"RAW.ETH.USD.VOLUME24HOUR\");\n        \n        // Multiply the result by 1000000000000000000 to remove decimals\n        int timesAmount = 10**18;\n        request.addInt(\"times\", timesAmount);\n        \n        // Sends the request\n        return sendChainlinkRequestTo(oracle, request, fee);\n    }\n\n    function requestGitHubUserInfo(string memory username) public  returns (bytes32 requestId) {\n        Chainlink.Request memory request = buildChainlinkRequest(jobId, address(this), this.fulfill.selector);\n\n        request.add(\"get\", string(abi.encodePacked(\"https://api.github.com/users/\", username)));\n\n        request.add(\"path\", \"name\");\n\n        return sendChainlinkRequestTo(oracle, request, fee);\n    }\n    \n    /**\n     * Receive the response in the form of uint256\n     */ \n    function fulfill(bytes32 _requestId, uint256 _volume) public recordChainlinkFulfillment(_requestId)\n    {\n        volume = _volume;\n    }\n}",
  "sourcePath": "/home/karl/Documents/SoftwareDevelopment/GitHub/angular-truffle-boilerplate/contracts/chainlink/apiConsumer.sol",
  "compiler": {
    "name": "solc",
    "version": "0.7.6+commit.7338295f.Emscripten.clang"
  },
  "schemaVersion": "3.3.4",
  "updatedAt": "2021-04-03T21:44:39.803Z",
  "devdoc": {
    "kind": "dev",
    "methods": {},
    "version": 1
  },
  "userdoc": {
    "kind": "user",
    "methods": {
      "constructor": {
        "notice": "Network: Kovan Oracle: 0x2f90A6D021db21e1B2A077c5a37B3C7E75D15b7e Job ID: 29fa9aa13bf1468788b7cc4a500a45b8 Fee: 0.1 LINK"
      },
      "fulfill(bytes32,uint256)": {
        "notice": "Receive the response in the form of uint256"
      },
      "requestVolumeData()": {
        "notice": "Create a Chainlink request to retrieve API response, find the target data, then multiply by 1000000000000000000 (to remove decimal places from data)."
      }
    },
    "version": 1
  }
}