{
  "contractName": "PricefeedsKovan",
  "abi": [
    {
      "inputs": [],
      "stateMutability": "nonpayable",
      "type": "constructor"
    },
    {
      "inputs": [],
      "name": "getEthLatestPrice",
      "outputs": [
        {
          "internalType": "int256",
          "name": "",
          "type": "int256"
        }
      ],
      "stateMutability": "view",
      "type": "function"
    }
  ],
  "bytecode": "0x608060405234801561001057600080fd5b50739326bfa02add2366b30bacb125260af6410313316000806101000a81548173ffffffffffffffffffffffffffffffffffffffff021916908373ffffffffffffffffffffffffffffffffffffffff16021790555073396c5e36dd0a0f5a5d33dae44368d4193f69a1f0600160006101000a81548173ffffffffffffffffffffffffffffffffffffffff021916908373ffffffffffffffffffffffffffffffffffffffff1602179055506101a4806100c96000396000f3fe608060405234801561001057600080fd5b5060043610610048576000357c010000000000000000000000000000000000000000000000000000000090048063a625d21d1461004d575b600080fd5b61005561006b565b6040518082815260200191505060405180910390f35b60008060008060008060008054906101000a900473ffffffffffffffffffffffffffffffffffffffff1673ffffffffffffffffffffffffffffffffffffffff1663feaf968c6040518163ffffffff167c010000000000000000000000000000000000000000000000000000000002815260040160a06040518083038186803b1580156100f657600080fd5b505afa15801561010a573d6000803e3d6000fd5b505050506040513d60a081101561012057600080fd5b8101908080519060200190929190805190602001909291908051906020019092919080519060200190929190805190602001909291905050509450945094509450945083955050505050509056fea2646970667358221220856a1d28dc3ff36f223505cfda442c9f242bfb4171ce49470f88219a391355fd64736f6c63430007060033",
  "immutableReferences": {},
  "source": "// SPDX-License-Identifier: MIT\npragma solidity ^0.7.0;\n\nimport \"@chainlink/contracts/src/v0.7/interfaces/AggregatorV3Interface.sol\";\n\n/**\n    AAVE / ETH\t        0xd04647B7CB523bb9f26730E9B6dE1174db7591Ad\n    AMPL / ETH\t        0x562C092bEb3a6DF77aDf0BB604F52c018E4f2814\n    AUD / USD\t        0x5813A90f826e16dB392abd2aF7966313fc1fd5B8\n    BAT / ETH\t        0x0e4fcEC26c9f85c3D714370c98f43C4E02Fc35Ae\n    BAT / USD\t        0x8e67A0CFfbbF6A346ce87DFe06daE2dc782b3219\n    BNB / USD\t        0x8993ED705cdf5e84D0a3B754b5Ee0e1783fcdF16\n    BTC / ETH\t        0xF7904a295A029a3aBDFFB6F12755974a958C7C25\n    BTC / USD\t        0x6135b13325bfC4B00278B4abC5e20bbce2D6580e\n    BUSD / ETH\t        0xbF7A18ea5DE0501f7559144e702b29c55b055CcB\n    BZRX / ETH\t        0x9aa9da35DC44F93D90436BfE256f465f720c3Ae5\n    CHF / USD\t        0xed0616BeF04D374969f302a34AE4A63882490A8C\n    COMP / USD\t        0xECF93D14d25E02bA2C13698eeDca9aA98348EFb6\n    CVI\t                0x0BD102ef50a6a133B38Bf3Bd3d40cE36cc1aB5A8\n    DAI / ETH\t        0x22B58f1EbEDfCA50feF632bD73368b2FdA96D541\n    DAI / USD\t        0x777A68032a88E5A84678A77Af2CD65A7b3c0775a\n    ENJ / ETH\t        0xfaDbe2ee798889F02d1d39eDaD98Eff4c7fe95D4\n    ETH / USDT RSI 4h\t0x10900f50d1bC46b4Ed796C50A4Cc63791CaF7501\n    ETH / USD\t        0x9326BFA02ADD2366b30bacB125260Af641031331\n    EUR / USD\t        0x0c15Ab9A0DB086e062194c273CC79f41597Bbf13\n    Ferrari F12 TDF \n        / USD\t        0x22a2D07993A1A18b3b86E56F960fa735b6D6cFD9\n    GBP / USD\t        0x28b0061f44E6A9780224AA61BEc8C3Fcb0d37de9\n    JPY / USD\t        0xD627B1eF3AC23F1d3e576FA6206126F3c1Bd0942\n    KNC / ETH\t        0xb8E8130d244CFd13a75D6B9Aee029B1C33c808A7\n    LINK / ETH\t        0x3Af8C569ab77af5230596Acf0E8c2F9351d24C38\n    LINK / USD\t        0x396c5E36DD0a0F5a5D33dae44368D4193f69a1F0\n    LTC / USD\t        0xCeE03CF92C7fFC1Bad8EAA572d69a4b61b6D4640\n    MANA / ETH\t        0x1b93D8E109cfeDcBb3Cc74eD761DE286d5771511\n    MKR / ETH\t        0x0B156192e04bAD92B6C1C13cf8739d14D78D5701\n    ORN / USDT\t        0x66413F734E69C2C41B4902024D0C5C3A86b8EcD2\n    Oil / USD\t        0x48c9FF5bFD7D12e3C511022A6E54fB1c5b8DC3Ea\n    REN / ETH\t        0xF1939BECE7708382b5fb5e559f630CB8B39a10ee\n    REP / ETH\t        0x3A7e6117F2979EFf81855de32819FBba48a63e9e\n    REP / USD\t        0x8f4e77806EFEC092A279AC6A49e129e560B4210E\n    SNX / ETH\t        0xF9A76ae7a1075Fe7d646b06fF05Bd48b9FA5582e\n    SNX / USD\t        0x31f93DA9823d737b7E44bdee0DF389Fe62Fd1AcD\n    SUSD / ETH\t        0xb343e7a1aF578FA35632435243D814e7497622f7\n    TRX / USD\t        0x9477f0E5bfABaf253eacEE3beE3ccF08b46cc79c\n    TSLA / USD\t        0xb31357d152638fd1ae0853d24b9Ea81dF29E3EF2\n    TUSD / ETH\t        0x7aeCF1c19661d12E962b69eBC8f6b2E63a55C660\n    UNI / ETH\t        0x17756515f112429471F86f98D5052aCB6C47f6ee\n    UNI / USD\t        0xDA5904BdBfB4EF12a3955aEcA103F51dc87c7C39\n    USDC / ETH\t        0x64EaC61A2DFda2c3Fa04eED49AA33D021AeC8838\n    USDC / USD\t        0x9211c6b3BF41A10F78539810Cf5c64e1BB78Ec60\n    USDT / ETH\t        0x0bF499444525a23E7Bb61997539725cA2e928138\n    USDT / USD\t        0x2ca5A90D34cA333661083F89D831f757A9A50148\n    XAG / USD\t        0x4594051c018Ac096222b5077C3351d523F93a963\n    XAU / USD\t        0xc8fb5684f2707C82f28595dEaC017Bfdf44EE9c5\n    XRP / USD\t        0x3eA2b7e3ed9EA9120c3d6699240d1ff2184AC8b3\n    XTZ / USD\t        0xC6F39246494F25BbCb0A8018796890037Cb5980C\n    YFI / ETH\t        0xC5d1B1DEb2992738C0273408ac43e1e906086B6C\n    ZRX / ETH\t        0xBc3f28Ccc21E9b5856E81E6372aFf57307E2E883\n    ZRX / USD\t        0x24D6B177CF20166cd8F55CaaFe1c745B44F6c203\n    sCEX / USD\t        0xA85646318D20C684f6251097d24A6e74Fe1ED5eB\n    sDEFI / USD\t        0x70179FB2F3A0a5b7FfB36a235599De440B0922ea\n */\n\ncontract PricefeedsKovan {\n\n    AggregatorV3Interface internal ethPriceFeed_USD;\n    AggregatorV3Interface internal linkPriceFeed_USD;\n\n    constructor() {\n        ethPriceFeed_USD = AggregatorV3Interface(0x9326BFA02ADD2366b30bacB125260Af641031331);\n        linkPriceFeed_USD = AggregatorV3Interface(0x396c5E36DD0a0F5a5D33dae44368D4193f69a1F0);\n    }\n\n    /**\n    //      * Network: Kovan\n    //      * Oracle: 0x2f90A6D021db21e1B2A077c5a37B3C7E75D15b7e\n    //      * Job ID: 29fa9aa13bf1468788b7cc4a500a45b8\n    //      * Fee: 0.1 LINK\n    //      \n    */\n    /**\n     * Returns the latest price\n     */\n    function getEthLatestPrice() public view returns (int) {\n        (\n            uint80 roundID, \n            int price,\n            uint startedAt,\n            uint timeStamp,\n            uint80 answeredInRound\n        ) = ethPriceFeed_USD.latestRoundData();\n        return price;\n    }\n}",
  "sourcePath": "/home/karl/Documents/SoftwareDevelopment/GitHub/angular-truffle-boilerplate/contracts/chainlink/pricefeeds/PricefeedsKovan.sol",
  "compiler": {
    "name": "solc",
    "version": "0.7.6+commit.7338295f.Emscripten.clang"
  },
  "schemaVersion": "3.3.4",
  "updatedAt": "2021-04-03T21:44:39.805Z",
  "devdoc": {
    "kind": "dev",
    "methods": {},
    "version": 1
  },
  "userdoc": {
    "kind": "user",
    "methods": {
      "getEthLatestPrice()": {
        "notice": "Returns the latest price"
      }
    },
    "notice": "AAVE / ETH\t        0xd04647B7CB523bb9f26730E9B6dE1174db7591Ad AMPL / ETH\t        0x562C092bEb3a6DF77aDf0BB604F52c018E4f2814 AUD / USD\t        0x5813A90f826e16dB392abd2aF7966313fc1fd5B8 BAT / ETH\t        0x0e4fcEC26c9f85c3D714370c98f43C4E02Fc35Ae BAT / USD\t        0x8e67A0CFfbbF6A346ce87DFe06daE2dc782b3219 BNB / USD\t        0x8993ED705cdf5e84D0a3B754b5Ee0e1783fcdF16 BTC / ETH\t        0xF7904a295A029a3aBDFFB6F12755974a958C7C25 BTC / USD\t        0x6135b13325bfC4B00278B4abC5e20bbce2D6580e BUSD / ETH\t        0xbF7A18ea5DE0501f7559144e702b29c55b055CcB BZRX / ETH\t        0x9aa9da35DC44F93D90436BfE256f465f720c3Ae5 CHF / USD\t        0xed0616BeF04D374969f302a34AE4A63882490A8C COMP / USD\t        0xECF93D14d25E02bA2C13698eeDca9aA98348EFb6 CVI\t                0x0BD102ef50a6a133B38Bf3Bd3d40cE36cc1aB5A8 DAI / ETH\t        0x22B58f1EbEDfCA50feF632bD73368b2FdA96D541 DAI / USD\t        0x777A68032a88E5A84678A77Af2CD65A7b3c0775a ENJ / ETH\t        0xfaDbe2ee798889F02d1d39eDaD98Eff4c7fe95D4 ETH / USDT RSI 4h\t0x10900f50d1bC46b4Ed796C50A4Cc63791CaF7501 ETH / USD\t        0x9326BFA02ADD2366b30bacB125260Af641031331 EUR / USD\t        0x0c15Ab9A0DB086e062194c273CC79f41597Bbf13 Ferrari F12 TDF  / USD\t        0x22a2D07993A1A18b3b86E56F960fa735b6D6cFD9 GBP / USD\t        0x28b0061f44E6A9780224AA61BEc8C3Fcb0d37de9 JPY / USD\t        0xD627B1eF3AC23F1d3e576FA6206126F3c1Bd0942 KNC / ETH\t        0xb8E8130d244CFd13a75D6B9Aee029B1C33c808A7 LINK / ETH\t        0x3Af8C569ab77af5230596Acf0E8c2F9351d24C38 LINK / USD\t        0x396c5E36DD0a0F5a5D33dae44368D4193f69a1F0 LTC / USD\t        0xCeE03CF92C7fFC1Bad8EAA572d69a4b61b6D4640 MANA / ETH\t        0x1b93D8E109cfeDcBb3Cc74eD761DE286d5771511 MKR / ETH\t        0x0B156192e04bAD92B6C1C13cf8739d14D78D5701 ORN / USDT\t        0x66413F734E69C2C41B4902024D0C5C3A86b8EcD2 Oil / USD\t        0x48c9FF5bFD7D12e3C511022A6E54fB1c5b8DC3Ea REN / ETH\t        0xF1939BECE7708382b5fb5e559f630CB8B39a10ee REP / ETH\t        0x3A7e6117F2979EFf81855de32819FBba48a63e9e REP / USD\t        0x8f4e77806EFEC092A279AC6A49e129e560B4210E SNX / ETH\t        0xF9A76ae7a1075Fe7d646b06fF05Bd48b9FA5582e SNX / USD\t        0x31f93DA9823d737b7E44bdee0DF389Fe62Fd1AcD SUSD / ETH\t        0xb343e7a1aF578FA35632435243D814e7497622f7 TRX / USD\t        0x9477f0E5bfABaf253eacEE3beE3ccF08b46cc79c TSLA / USD\t        0xb31357d152638fd1ae0853d24b9Ea81dF29E3EF2 TUSD / ETH\t        0x7aeCF1c19661d12E962b69eBC8f6b2E63a55C660 UNI / ETH\t        0x17756515f112429471F86f98D5052aCB6C47f6ee UNI / USD\t        0xDA5904BdBfB4EF12a3955aEcA103F51dc87c7C39 USDC / ETH\t        0x64EaC61A2DFda2c3Fa04eED49AA33D021AeC8838 USDC / USD\t        0x9211c6b3BF41A10F78539810Cf5c64e1BB78Ec60 USDT / ETH\t        0x0bF499444525a23E7Bb61997539725cA2e928138 USDT / USD\t        0x2ca5A90D34cA333661083F89D831f757A9A50148 XAG / USD\t        0x4594051c018Ac096222b5077C3351d523F93a963 XAU / USD\t        0xc8fb5684f2707C82f28595dEaC017Bfdf44EE9c5 XRP / USD\t        0x3eA2b7e3ed9EA9120c3d6699240d1ff2184AC8b3 XTZ / USD\t        0xC6F39246494F25BbCb0A8018796890037Cb5980C YFI / ETH\t        0xC5d1B1DEb2992738C0273408ac43e1e906086B6C ZRX / ETH\t        0xBc3f28Ccc21E9b5856E81E6372aFf57307E2E883 ZRX / USD\t        0x24D6B177CF20166cd8F55CaaFe1c745B44F6c203 sCEX / USD\t        0xA85646318D20C684f6251097d24A6e74Fe1ED5eB sDEFI / USD\t        0x70179FB2F3A0a5b7FfB36a235599De440B0922ea",
    "version": 1
  }
}